:100000000C94D0000C94F8000C94F8000C94F800B8
:100010000C94F8000C94F8000C94F8000C94F80080
:100020000C94610A0C94F8000C94F8000C94F800FD
:100030000C94F8000C94F8000C94F8000C94F80060
:100040000C94A0080C94F8000C9410090C94EA0885
:100050000C94F8000C94F8000C94F8000C94F80040
:100060000C9442090C94F80017002860095802B05B
:1000700004580258025802102D000000060026E025
:100080002070100E022A060E022602806E00500713
:10009000050026E02070100E022A060E020E020055
:1000A00041000000130026801180113002900630BC
:1000B000023002006E0000001E002638081C040EEC
:1000C000022A060E020E0200320000001C00262248
:1000D0000B220BEE026608EE02EE02806E000000BC
:1000E000190026F603BC050802BC050802D401006D
:1000F0004B0000001B00261F015D033E023E021F55
:10010000015D03A06E00000004002604010C03043E
:10011000011C0704010C03006E0000000B00258089
:100120000DC006B0011005B001B001008200000052
:1001300007002600238011300290063002300200B2
:100140006E00400700000000240027002A00000085
:100150000000250028002B0000000008000201001C
:100160000003040700000000000000000000000081
:1001700023002600290004040404040404040202E9
:100180000202020203030303030301020408102016
:100190004080010204081020010204081020510BC5
:1001A00011241FBECFEFD8E0DEBFCDBF24E0A8EB07
:1001B000B1E001C01D92A33CB207E1F711E0A0E05D
:1001C000B1E0E2E5F2E302C005900D92A83BB10771
:1001D000D9F710E0C0EDD0E004C02197FE010E94E5
:1001E0002119CF3CD107C9F70E94170C0C9427198D
:1001F0000C9400002091B4043091B50428173907FD
:1002000028F48091B20481608093B2040895209113
:10021000B6038091B30440E0281798F5422F41704F
:100220003091B903311121C0E22FF0E0E355FC4FCA
:10023000838992E3899FF0011124ACEEBFEF442340
:1002400011F0A4E1B0E06091BA037091BB03CB015F
:10025000969587958E0F9F1F8A0F9B1F0E94EE1801
:1002600077277093B8036093B7038091B703909199
:10027000B803009771F03F5F3817190620F43093E8
:10028000B903842F08951092B9032F5F2093B6030A
:10029000F8CF42E0F6CF96E0899FD0011124A35D0C
:1002A000BC4F90967C936E935F9791E091969C9350
:1002B0009197E0919A03F0919B0390919903992370
:1002C00039F0309751F0811108C0809149030994A9
:1002D000309719F05C968C91FACF0895CF92DF9207
:1002E000EF92FF920F931F9396E0899FF0011124E4
:1002F000E35DFC4F11A2278D30A12130310551F172
:1003000078F02230310509F451C02330310509F469
:1003100052C01F910F91FF90EF90DF90CF90089502
:100320006623B9F361E070E00E944B012FB7F894A7
:100330008091800290918102A0918202B09183020B
:100340002FBF8093850390938603A0938703B09378
:100350008803DFCF9FB7F894C0908002D0908102CD
:10036000E0908202F09083029FBF0091850310917C
:1003700086032091870330918803C01AD10AE20ACC
:10038000F30A009197031091980330E020E00C15D8
:100390001D052E053F0550F462E070E01F910F919E
:1003A000FF90EF90DF90CF900C944B016111B1CF93
:1003B00063E070E0F3CF70E060E0F0CF833081F075
:1003C00028F4813099F08230A9F008958730A9F09F
:1003D0008830C9F08430B1F4809180008F7D03C0F3
:1003E000809180008F7780938000089584B58F7707
:1003F00084BD089584B58F7DFBCF8091B0008F7749
:100400008093B00008958091B0008F7DF9CFCF9395
:10041000DF93282F30E0F901E85AFE4F8491F9016B
:10042000E657FE4FD491F901EA58FE4FC491CC2310
:10043000A1F081110E94DE01EC2FF0E0EE0FFF1F12
:10044000E459FE4FA591B491EC91ED2381E090E049
:1004500009F480E0DF91CF91089580E090E0FACF39
:100460001F93CF93DF93282F30E0F901E85AFE4F16
:100470008491F901E657FE4FD491F901EA58FE4FF5
:10048000C491CC23A9F0162F81110E94DE01EC2F1C
:10049000F0E0EE0FFF1FE25BFE4FA591B4918FB726
:1004A000F894EC91111108C0D095DE23DC938FBF36
:1004B000DF91CF911F910895DE2BF8CFCF93DF937B
:1004C00090E0FC01E657FE4F24918A589E4FFC01B4
:1004D00084918823C9F090E0880F991FFC01EC5BA0
:1004E000FE4FA591B491FC01E25BFE4FC591D49102
:1004F00061110DC09FB7F8948C91209582238C9345
:100500008881282328839FBFDF91CF91089562308F
:1005100051F49FB7F8943C91822F809583238C935C
:10052000E8812E2BEFCF8FB7F894EC912E2B2C93E4
:100530008FBFEACF3FB7F89480917C0290917D0203
:10054000A0917E02B0917F0226B5A89B05C02F3FE7
:1005500019F00196A11DB11D3FBFBA2FA92F982FE9
:100560008827BC01CD01620F711D811D911D42E0E4
:10057000660F771F881F991F4A95D1F708958F92AC
:100580009F92AF92BF92CF92DF92EF92FF924B0178
:100590005C010E949A026B017C010E949A026C1914
:1005A0007D098E099F09683E734081059105A8F376
:1005B00021E0821A9108A108B10888EEC80E83E0F4
:1005C000D81EE11CF11C81149104A104B10429F787
:1005D000FF90EF90DF90CF90BF90AF909F908F9063
:1005E0000895862F642F0C945E02862F642F0C943E
:1005F0003002862F0C94070208950895AF92BF929F
:10060000CF92DF92EF92FF920F931F93CF93DF93DE
:100610006C017B018B01040F151FEB015E01AE180D
:10062000BF08C017D10759F06991D601ED91FC912F
:100630000190F081E02DC6010995892B79F7C5015C
:10064000DF91CF911F910F91FF90EF90DF90CF90AE
:10065000BF90AF900895FC01538D448D252F30E05D
:10066000842F90E0821B930B541710F0CF960895BF
:1006700001970895FC01918D828D981761F0A28DEC
:10068000AE0FBF2FB11D5D968C91928D9F5F9F73B2
:10069000928F90E008958FEF9FEF0895FC01918D68
:1006A000828D981731F0828DE80FF11D858D90E0D5
:1006B00008958FEF9FEF0895FC01918D228D892F72
:1006C00090E0805C9F4F821B91098F73992708955A
:1006D00084E892E00E945C0321E0892B09F420E089
:1006E000822F089580E090E0892B29F00E94680312
:1006F00081110C9400000895FC01A48DA80FB92F5E
:10070000B11DA35ABF4F2C91848D90E001968F7339
:100710009927848FA689B7892C93A089B1898C9158
:10072000837080648C93938D848D981306C00288A7
:10073000F389E02D80818F7D80830895EF92FF9271
:100740000F931F93CF93DF93EC0181E0888F9B8DF4
:100750008C8D98131AC0E889F989808185FF15C0AE
:100760009FB7F894EE89FF896083E889F9898081D1
:100770008370806480839FBF81E090E0DF91CF91A0
:100780001F910F91FF90EF900895F62E0B8D10E0C2
:100790000F5F1F4F0F731127E02E8C8D8E110CC031
:1007A0000FB607FCFACFE889F989808185FFF5CF7C
:1007B000CE010E947C03F1CFEB8DEC0FFD2FF11DDC
:1007C000E35AFF4FF0829FB7F8940B8FEA89FB89B9
:1007D00080818062CFCFCF93DF93EC01888D882317
:1007E000B9F0AA89BB89E889F9898C9185FD03C094
:1007F000808186FD0DC00FB607FCF7CF8C9185FF79
:10080000F2CF808185FFEDCFCE010E947C03E9CF3E
:10081000DF91CF91089520912002260F3327331FB7
:1008200021323105ECF420914402FC0190E080E09B
:10083000243069F082E00895A09120022191AC015A
:1008400040505E4FA40FB52FB11D2C930196861713
:1008500098F380912002680F6093200280E0089551
:1008600081E008951092440281E080934602109244
:10087000450261E082E10E94300261E083E10E9472
:100880003002E9EBF0E080818E7F808380818D7F74
:10089000808388E48093B80085E48093BC00089549
:1008A000CF93DF9391E09093FF018823B9F0C0913B
:1008B000B800D091BA008091BC008A7B8093BC00C4
:1008C00060E082E10E94300260E083E10E94300239
:1008D0000E943204D093BA00C093B800DF91CF9148
:1008E00008950895E091710280917002E81730F444
:1008F000F0E0E652FE4F808190E008958FEF9FEF89
:10090000089590917102809170022FEF3FEF981738
:1009100048F4E92FF0E0E652FE4F208130E09F5F7F
:1009200090937102C90108958091700290917102B3
:10093000891B990B0895CF92DF92EF92FF920F934C
:100940001F93CF93DF937C01CB018A012091D901C2
:10095000222389F0EB016B01C40ED51ECC15DD05F9
:1009600069F06991D701ED91FC910190F081E02D42
:10097000C7010995F3CF642F0E940B04C801DF91D2
:10098000CF911F910F91FF90EF90DF90CF9008953E
:10099000CF93DF931F92CDB7DEB769832091D90142
:1009A0002223F9F020916E02203258F021E030E04D
:1009B000FC013383228390E080E00F90DF91CF91A0
:1009C000089580916F02E82FF0E0E754FE4F99817F
:1009D00090838F5F80936F0280936E0281E090E03E
:1009E000ECCF61E0CE0101960E940B04F7CFCF92CD
:1009F000DF92EF92FF920F931F93CF93DF93FC014F
:100A0000C48121E02093D901C093B80110926F02F4
:100A100010926E028385682B81E293E00E94C804E5
:100A2000D0916E02D13208F092C00E949A026B01FE
:100A30007C0180914402811165C082E08093440270
:100A400081E0809346028FEF809343021092680208
:100A5000D0936702A9EBB1E0E7E4F2E080E0D813BD
:100A600085C01092690280916902CC0FC82BC09397
:100A7000690280914502813009F07CC010924502E4
:100A80000E949A026B017C01809169028093BB00F5
:100A90008091FB019091FC01A091FD01B091FE01BC
:100AA000892B8A2B8B2B99F00E949A020091FB01D3
:100AB0001091FC012091FD013091FE016C197D091E
:100AC0008E099F090617170728073907E0F180915B
:100AD000BC0083FDD9CF85EC8093BC000E949A02B4
:100AE0006B017C0180914402823009F445C0809101
:100AF00043028F3F61F180914302803241F1809146
:100B0000430225C08091FB019091FC01A091FD0161
:100B1000B091FE01892B8A2B8B2B09F48ACF0E947E
:100B20009A020091FB011091FC012091FD0130918E
:100B3000FE016C197D098E099F0906171707280702
:100B4000390708F076CF8091FA010E945004109284
:100B50006F0210926E021092D901DF91CF911F9116
:100B60000F91FF90EF90DF90CF9008959D9191931A
:100B70008F5F75CF85EEB0CF8091FB019091FC0126
:100B8000A091FD01B091FE01892B8A2B8B2B09F4DA
:100B9000A9CF0E949A020091FB011091FC012091C3
:100BA000FD013091FE016C197D098E099F09061720
:100BB00017072807390708F095CFC5CF089590E0AB
:100BC00080E008958F929F92AF92BF92CF92DF9272
:100BD000EF92FF924B015C010E949A026B017C0133
:100BE00024E0C21AD108E108F1080E949A026C19A7
:100BF0007D098E099F09681579058A059B05A8F36B
:100C0000FF90EF90DF90CF90BF90AF909F908F902C
:100C1000089542E3489F9001499F300D11242C5EB6
:100C20003F4F7695679576956795CB01880F991F0D
:100C3000860F971F8217930750F485E0869FA001C7
:100C4000879F500D112481E04217530708F480E07C
:100C5000089542E3489F9001499F300D112424518B
:100C600031097695679576956795CB01880F991F21
:100C7000860F971F8217930750F485E0869FA00187
:100C8000879F500D112481E04217530708F480E03C
:100C900008954F925F926F927F929F92AF92BF9210
:100CA000CF92DF92EF92FF920F931F93CF93DF9338
:100CB000182F5A01922EC62FD0E0C054DC4F412C81
:100CC000512C32014394C12CD12C76011123F1F027
:100CD0009920B1F08881B50190E00E942906002397
:100CE00069F1CC0CDD1CEE1CFF1C882311F068940C
:100CF000C0F8440C551C661C771C11502296E6CF98
:100D00008981B50190E00E940906E9CFC092900464
:100D1000D0929104E0929204F0929304DF91CF91EB
:100D20001F910F91FF90EF90DF90CF90BF90AF9009
:100D30009F907F906F905F904F9008958823C9F2A5
:100D4000C428D528E628F728D4CFCF93DF93EC0129
:100D5000FC013396659174918091C10390E00E94EB
:100D60002906882359F0FE0135966591749180918A
:100D7000C20390E0DF91CF910C94090680E0DF91EF
:100D8000CF910895E8EAF3E08AE190E092838183CD
:100D900085E090E09483838361E080810C945E021F
:100DA0008091C1048F3F11F42D98089560E00C9458
:100DB0003002882349F08091C1048F3F11F42D9AAD
:100DC000089561E00C9430020C94D0068F929F92AB
:100DD000AF92BF92CF92DF92EF92FF92CF936C01CE
:100DE0000E949A024B015C01F12CE12C88E0C80EB4
:100DF000D11CE11CF11CC80CD91CEA1CFB1CC0E076
:100E0000F89461E08091A8030E943002E091AB0366
:100E1000F091AC03E230F10538F0EE0FFF1FEE0F5A
:100E2000FF1F35973197F1F760E08091A8030E948A
:100E300030027894C11103C081E00E94D9068091EC
:100E4000A9039091AA03880E991EA11CB11C0E94AF
:100E50009A026C157D058E059F0558F0CF91FF9085
:100E6000EF90DF90CF90BF90AF909F908F900C94B9
:100E7000D006C1E0681579058A059B0540F3C0CF0F
:100E80000E94C20680E093E20E94E60660EC78E0F1
:100E900080E090E00E94E20580E392E00C94E60698
:100EA0000E94C20680EE90E20E94E60668E378E0C7
:100EB00080E090E00E94E2058EE092E00C94E6066D
:100EC0000F931F93CF938C01C62F0E94F7046C2FB2
:100ED0006460C8010E94F7046C2F6B7FC8010E94F8
:100EE000F70483EC90E00197F1F7CF911F910F91F8
:100EF00008950F931F93CF93DF938C01D62FC42FA8
:100F0000607F642B0E94600780E1D89FB0011124AC
:100F10006C2BC801DF91CF911F910F910C9460074A
:100F200040E061E08CE993E00E9479078BE39FE168
:100F30000197F1F70895682F606840E08CE993E02D
:100F40000C9479070E94900780E00C949B0741E085
:100F50000E94790781E090E00895FF920F931F931C
:100F6000CF93DF93CDB7DEB764970FB6F894DEBFAB
:100F70000FBECDBF162FF42E44E150E0BC01CE01D0
:100F800001960E9499180889802F8071488559859B
:100F900004FD02C04A855B85001F0027001F21E079
:100FA000811101C020E06F2D812F0E9449066496B7
:100FB0000FB6F894DEBF0FBECDBFDF91CF911F916A
:100FC0000F91FF900895FB0101900020E9F7319700
:100FD000AF01461B570BDC01ED91FC910280F381C0
:100FE000E02D0994CF92DF92EF92FF920F931F931F
:100FF000CF93DF93CDB7DEB7A1970FB6F894DEBFDE
:101000000FBECDBF6B017C01F7FE3EC041E06DE23B
:101010008CE993E00E94790722273327A9012C1934
:101020003D094E095F0919A28E010F5D1F4F9AE01D
:10103000C92ED12CE12CF12CCA01B901A7019601CE
:101040000E94B218605DF80162938F01211531058D
:101050004105510589F790E080E0309729F0BF0104
:101060008CE993E00E94E3070196A1960FB6F894ED
:10107000DEBF0FBECDBFDF91CF911F910F91FF90CB
:10108000EF90DF90CF900895AC019B0119A28E01E3
:101090000F5D1F4F8AE0C82ED12CE12CF12CCA0124
:1010A000B901A70196010E94B218605DF801629330
:1010B0008F01211531054105510589F790E080E048
:1010C000309799F2BF018CE993E00E94E307CDCFFE
:1010D00085ED8093BC008091FB019091FC01A09173
:1010E000FD01B091FE010796A11DB11D23E0B6954B
:1010F000A795979587952A95D1F72091BC0024FD57
:1011000003C01092440208954091FB015091FC01EC
:101110006091FD017091FE01452B462B472B69F331
:101120000097A105B10541F02AE22A95F1F700C028
:101130000197A109B109E1CF8091FA010C94500403
:101140001F920F920FB60F9211242F933F938F93FC
:101150009F93AF93BF938091800290918102A09161
:101160008202B091830230917B0223E0230F2D375E
:1011700058F50196A11DB11D20937B02809380023A
:1011800090938102A0938202B093830280917C02AB
:1011900090917D02A0917E02B0917F020196A11DE7
:1011A000B11D80937C0290937D02A0937E02B09348
:1011B0007F02BF91AF919F918F913F912F910F909F
:1011C0000FBE0F901F90189526E8230F0296A11DC1
:1011D000B11DD2CF1F920F920FB60F9211242F93F1
:1011E0003F934F935F936F937F938F939F93AF93AF
:1011F000BF93EF93FF9384E892E00E947C03FF91FA
:10120000EF91BF91AF919F918F917F916F915F917E
:101210004F913F912F910F900FBE0F901F901895F7
:101220001F920F920FB60F9211242F938F939F93BB
:10123000EF93FF93E0919402F09195028081E09109
:101240009A02F0919B0282FD1BC0908180919D02C9
:101250008F5F8F7320919E02821741F0E0919D0273
:10126000F0E0EC57FD4F958F80939D02FF91EF9139
:101270009F918F912F910F900FBE0F901F901895F7
:101280008081F4CF1F920F920FB60F9211242F93EB
:101290003F934F935F936F937F938F939F93AF93FE
:1012A000BF93EF93FF938091B900887F803609F454
:1012B0004AC0F0F5883209F4A7C018F5803109F466
:1012C0009BC0B8F4882309F4F9C0883009F494C0AD
:1012D000FF91EF91BF91AF919F918F917F916F910E
:1012E0005F914F913F912F910F900FBE0F901F90E4
:1012F0001895883109F488C0803251F780934302F1
:1013000014C0803409F49DC040F48033B9F38833AD
:10131000F9F68093430285ECB0C0803509F485C0AE
:10132000883509F496C0883499F60E946808D0CFB1
:10133000883909F48CC038F5883729F050F488369C
:1013400011F0803729F683E0809344021092420224
:1013500057C0883809F47BC0803919F0803809F00B
:10136000B7CF80914202803208F071C0E091420212
:1013700081E08E0F809342028091BB00F0E0EE5D31
:10138000FD4F80833DC0803B39F0E0F4803A09F4A2
:1013900079C0883A09F09CCF84E08093440210928F
:1013A000210210922002E0916C02F0916D020995E9
:1013B0008091200281110FC081E080932002109261
:1013C000000209C0803C09F4A6CF883C09F4A3CFF1
:1013D000883B09F07DCFE091210281E08E0F809360
:1013E0002102F0E0E050FE4F80818093BB0090919D
:1013F00021028091200229C0809169028093BB0064
:1014000085EC8093BC0064CF909168028091670264
:10141000981758F5E091680281E08E0F809368027A
:10142000F0E0E95BFD4F8081E9CFE091680281E067
:101430008E0F809368028091BB00F0E0E95BFD4F66
:10144000808390916802809167029817C8F285E8BE
:10145000D8CFE091680281E08E0F8093680280917E
:10146000BB00F0E0E95BFD4F808380914602811173
:101470005CCF81E08093450284EA8093BC001092A7
:10148000440226CF85EC8093BC00109244028091E8
:101490004202803230F4E0914202F0E0EE5DFD4F16
:1014A00010826091420270E0E0916A02F0916B025A
:1014B00082E292E00995109242020ACF1092430212
:1014C00034CF1F920F920FB60F9211242F933F9398
:1014D0004F935F936F937F938F939F93AF93BF933C
:1014E000CF93EF93FF93E091AF03F091B003C081EE
:1014F0008091B103C8238091B2039091B3032091EE
:10150000B2033091B3032F3F3F4F29F001969093E0
:10151000B3038093B2032091AD03211115C0C11113
:101520004BC0813A910558F01092BC039093BF03D1
:101530008093BE0381E08093BD038093AD0310923E
:10154000B3031092B20338C0213099F4CC23A1F137
:10155000E091BD032E0F2093BD03F0E0E355FC4F57
:101560008F3F910519F010F08FEF90E0838B82E0B0
:10157000E4CF223009F047C0E091BD03813A9105E4
:1015800010F4E73CA0F1E83C18F081E08093BC0344
:101590008091BE039091BF039093B5048093B404EF
:1015A000E093B30483E08093AD03E091B403F09142
:1015B000B503309709F009958091C204882329F07A
:1015C00081E0C11180E00E94D906FF91EF91CF9197
:1015D000BF91AF919F918F917F916F915F914F914B
:1015E0003F912F910F900FBE0F901F901895C11132
:1015F000E3CF91E09E0F9093BD03F0E0E355FC4FE5
:10160000838B81E09ACF2330B9F6C111D5CF97CF24
:10161000DF92EF92FF920F931F93CF93DF93EC0132
:10162000D62E8A017901F0E090E080E030E0E0E041
:10163000DE01AE0FB11D2C91FF5F222339F0320F76
:101640002E9F800D911D11241C92F0E03323B9F0E0
:10165000DE1611F0F23098F0232F2695820F911D9F
:10166000632F70E00E94EE18DE01A60FB11D3C93BF
:10167000D8013C9131110FC06C9390E080E0EF5F96
:10168000DE16B0F681E0DF91CF911F910F91FF90B0
:10169000EF90DF900895D7013C91332369F380E008
:1016A000F2CF109287021092860288EE93E0A0E0BB
:1016B000B0E08093880290938902A0938A02B0934D
:1016C0008B0221E631E0309385022093840225ECE1
:1016D00030E0309391022093900224EC30E030937C
:1016E00093022093920220EC30E0309395022093F5
:1016F000940221EC30E0309397022093960222EC82
:1017000030E0309399022093980226EC30E0309339
:101710009B0220939A0210929D0210929E021092B8
:101720009F021092A0021092240310922303809330
:10173000250390932603A0932703B093280383E700
:1017400091E090932203809321038FEF8093C10453
:101750001092AE0381E08093B10389E290E0909310
:10176000B0038093AF0350981092A80310929F0388
:1017700010929E038FE891E090939D0380939C03C9
:1017800087E28093A00380E18093A50382E08093A9
:10179000A6031092A70310922F0310923303109206
:1017A00032031092340385E891E090932E038093E6
:1017B0002D03E9E4F3E085E893E0108214821382BC
:1017C000158236968E179F07C1F788E191E09093B6
:1017D000900380938F0384E191E090939203809330
:1017E000910384E080939303809394038CE191E0D0
:1017F00090938E0380938D038AE090E090939603FC
:101800008093950384EF91E09093980380939703DE
:1018100010929B0310929A031092890310928A03EC
:1018200010928B0310928C03109299030895CF931A
:10183000DF93CDB7DEB7E7970FB6F894DEBF0FBEE4
:10184000CDBF789484B5826084BD84B5816084BD49
:1018500085B5826085BD85B5816085BD80916E004E
:10186000816080936E00109281008091810082607F
:1018700080938100809181008160809381008091BC
:1018800080008160809380008091B10084608093AB
:10189000B1008091B00081608093B00080917A00A7
:1018A000846080937A0080917A00826080937A00CD
:1018B00080917A00816080937A0080917A008068BC
:1018C00080937A001092C100E0919402F091950209
:1018D00082E08083E0919002F09191021082E09189
:1018E0009202F09193028FEC808310929C02E0911F
:1018F0009802F091990286E08083E0919602F0913F
:101900009702808180618083E0919602F091970236
:10191000808188608083E0919602F09197028081B7
:1019200080688083E0919602F091970280818F7D9C
:101930008083109271021092700210926F021092C6
:101940006E020E9432048CEF92E090936D028093BD
:101950006C028DEF92E090936B0280936A0210927A
:10196000A1038091A603823018F098E09093A10320
:101970008093A40362E370E080E090E00E94BF02E5
:101980006091A7038CE993E00E94F70468EE73E08E
:1019900080E090E00E94BF0260E38CE993E00E9447
:1019A00060070BE416E4C8010197F1F760E38CE9E6
:1019B00093E00E946007C8010197F1F760E38CE9AA
:1019C00093E00E94600783E592E00197F1F760E2FF
:1019D0008CE993E00E9460076091A103606240E09F
:1019E0008CE993E00E94790784E08093A20340E0B1
:1019F0006CE08CE993E00E9479070E94900712E066
:101A00001093A30340E066E08CE993E00E9479071D
:101A100040E062E08CE993E00E9479078BE39FE16C
:101A20000197F1F708E00093A70360E08CE993E0E9
:101A30000E94F70480E00E949B0767E971E08CE94F
:101A400093E00E94E3076CED75E080E090E00E9477
:101A5000BF020E9490078BE08093AE030093B10316
:101A600083E290E09093B0038093AF0323981092A9
:101A7000C2048FEF8093C104259A1093B000109395
:101A8000B10084E68093B3008093B4001092B2005A
:101A90008091AD03833011F41092AD0384E0809304
:101AA00070009E012F5F3F4F79018091AD0310E0E0
:101AB000833009F0F3C18091BC03882309F465C029
:101AC00080E48093B20410928904109288041092EA
:101AD0008D0410928C0410928B0410928A04109240
:101AE0009004109291041092920410929304109218
:101AF000B1041092B0048091B204E0918C0486FD90
:101B0000C3C11091B304812F8F7B843009F0BFC013
:101B10008091C10360E073E290E00E94290688236F
:101B200009F442C18091C20390E0143009F048C02A
:101B300060EC78E00E940906882309F435C18091A1
:101B4000C30360E372E090E00E942906882309F451
:101B50002BC181E08093B2048091B8049091B904C4
:101B600090938B0480938A048091BA049091BB0473
:101B700090938D0480938C048091B6049091B70467
:101B800090938904809388047AC11092B204809162
:101B90008804909189049093B7048093B60480914F
:101BA0008C0490918D049093BB048093BA0480912F
:101BB0008A0490918B049093B9048093B80483CFE6
:101BC00060E871E10E940906882309F4EDC043E052
:101BD00060E280E391E00E94AD07809190049091D3
:101BE00091044091920450919304242F30E030935B
:101BF0008D0420938C049C012E3E67E8360721F566
:101C000083E090E09093890480938804852F90E08E
:101C100090938B0480938A0480E290E09093B104C7
:101C20008093B0048AE795E00E94FA008091B204A4
:101C300080FF25C128E030E0309389042093880498
:101C400080628093B2041BC19095891310C090E00C
:101C500090938B0480938A04852F809548130CC041
:101C600087E090E09093890480938804D5CF3093E7
:101C70008B0420938A04F0CF89E090E0909389044C
:101C80008093880440938C0450938D04C5CF143600
:101C900009F08AC08CE191E00E94A506882309F42E
:101CA00083C043E060E18CE191E00E94AD07B09019
:101CB00090040B2D10919104BAE0CB2ED12C023060
:101CC00080E21807F9F0ADE0CA2ED12C0A3A9AE565
:101CD0001907C1F0FCE0CF2ED12C0435A2E31A077E
:101CE00089F0EEE0CE2ED12C0330B1E01B0751F08D
:101CF0008FE0C82ED12C0332EBEC1E0719F07BE0ED
:101D0000C72ED12CB1268B2D82958F70B82643E239
:101D100060E28CE191E00E94AD0780919004909187
:101D20009104A0919204B09193049C0164E03695D3
:101D300027956A95E1F730938B0420938A042A2F24
:101D400030E030938D0420938C04282F2A272927F4
:101D50003B2D3F70482F4F70341719F034E030930B
:101D6000B204FBE0CF16D10449F43091B2043061E3
:101D70003093B20410938F0400938E042B1729F034
:101D80008091B20484608093B20480E390E09093E9
:101D9000B1048093B004D0928904C09288048AE38D
:101DA00097E00E94FA006BC08091B304803209F082
:101DB000B1C08091C1038A3008F0ACC041E06FE04F
:101DC00088E091E00E94AD07809190049091910489
:101DD000A0919204B09193049C012F71332730930A
:101DE0008B0420938A0455E0B695A795979587951F
:101DF0005A95D1F7392F3370AC01552750938D0484
:101E000040938C044091B4045091B504453654403D
:101E100008F07DC02091B20422602093B20420918A
:101E2000C0042F5F2093C00420FF19C0213019F097
:101E300021E02093B2043091BA044091BB04282FD2
:101E40002095231729F02091B20424602093B20436
:101E500030938C0440938D04392F3095337086E194
:101E600090E0311102C084E090E090938904809367
:101E700088048FE090E09093B1048093B004E091E7
:101E80008C0410E0E13320F4F0E0E45DFE4F1081BB
:101E90008091AD03833011F41092AD0381E0809303
:101EA00099038FB7F894409180025091810260911C
:101EB0008202709183028FBF8091890390918A037F
:101EC000A0918B03B0918C03481B590B6A0B7B0BC1
:101ED0008091950390919603B0E0A0E08417950758
:101EE000A607B70710F00C94BB1700E0809193038E
:101EF000081708F07CC6E0918F03F0919003E00F83
:101F0000F11D62E080810E945E020F5FEFCF1092B0
:101F1000C004A5CF88E690E00E94A5069091B30486
:101F2000882309F445C09A3129F09A3219F0903289
:101F300009F03EC0892F90E0BC016150710977FD26
:101F4000BC017595679543E088E690E00E94AD0777
:101F50008091900490919104A0919204B091930487
:101F60009C012F77332730938D0420938C0447E016
:101F7000B695A795979587954A95D1F790938B0439
:101F800080938A042091B30430E0C901019797FD42
:101F9000C901959587959093B1048093B00487E12A
:101FA00090E0909389048093880488E292E0F9CECF
:101FB00081E08093B60329E733E03093BB0320939D
:101FC000BA031092B9039E509B3108F0C0C08091B3
:101FD000C1038D3208F0BBC00E940701813009F0B7
:101FE000B6C000E0812C912C540110E09091B60312
:101FF0008091B3049817C0F50E940701D82E0E9463
:102000000701D1100AC0813091F4880C991CAA1CD8
:10201000BB1C689480F81F5FE9CF31E0D31207C082
:10202000811105C0880C991CAA1CBB1CF4CF173069
:1020300009F08DC08091B603E82FF0E0E355FC4F26
:102040009389963340F39091B9039E5F9093B903BF
:102050002091B7033091B8039217130618F08F5FE1
:102060008093B60301E0D7CF8092900490929104C0
:10207000A0929204B09293049401A6E0369527951D
:10208000AA95E1F7812F90E00023D1F10197909379
:10209000B1048093B004C4018F73992790938F0487
:1020A00080938E042F73332730938D0420938C04F8
:1020B000D501C401FCE0B695A79597958795FA954B
:1020C000D1F78F71992790938B0480938A04A2FC97
:1020D00006C0205C3F4F30938D0420938C0480E930
:1020E0008093B204A1FE03C088E98093B2048DE11D
:1020F00090E090938904809388048AED98E051CE13
:102100009093B1048093B004882D8F7390E09093E6
:102110008D0480938C042F71332730938B0420938C
:102120008A04940122273071232B31F4805C9F4F65
:1021300090938D0480938C0480E88093B20493FE86
:1021400003C088E88093B20480E190E0D2CF809110
:10215000B3048A518F3208F0A5C08091C10368E6AC
:102160007AE090E00E942906882309F49BC08091C0
:10217000C20368E773E090E00E940906882309F42F
:1021800091C083E08093B6038CEB91E09093BB0306
:102190008093BA031092B9030E940701813009F0BD
:1021A00081C00E94070181117DC0812C912C5401B6
:1021B00010E09091B6038091B304981730F50E9417
:1021C0000701082F0E940701133049F408136AC061
:1021D0000E940701D82E0E940701D81263C0013067
:1021E00051F481115FC0880C991CAA1CBB1C689417
:1021F00080F81F5FDECF011155C0813009F052C059
:10220000880C991CAA1CBB1CF4CF812F90E09093E2
:10221000B1048093B0048092900490929104A092B3
:102220009204B0929304282D30E0892D90E013326F
:1022300000F540E84093B20430938D0420938C0461
:1022400090938B0480938A04A0FE03C088E8809357
:10225000B204153128F08091B20480618093B204F9
:1022600081E190E0909389048093880483E79AE069
:1022700098CD40E94093B20430938D0420938C04B0
:1022800090938B0480938A04C5019F7390938F046D
:1022900080938E04B7FE03C088E98093B20482E184
:1022A00090E0E0CF1091B3041C3319F0143009F022
:1022B00099C08091C10360EE70E290E00E9429060F
:1022C000882309F48FC01430A1F50091B604109151
:1022D000B7040630110509F0DBC08091C20368E342
:1022E00078E090E00E940906882309F4D1C080912B
:1022F000C3036EE072E090E00E942906882309F48F
:10230000C7C081E88093B2048091B8049091B90469
:1023100090938B0480938A048091BA049091BB04BB
:1023200090938D0480938C04109389040093880407
:10233000A6CD8091C20360E770E190E00E9409069B
:10234000882309F44FC043E06CE18CE790E00E94E1
:10235000AD0780E88093B20480919004909191043D
:10236000A0919204B09193048C019D0144E03695B4
:102370002795179507954A95D1F7A80110938D04D5
:1023800000938C048C019D0164E136952795179587
:1023900007956A95D1F710938B0400938A0424E083
:1023A00030E060E0742F7F70670F04E0569547952A
:1023B0000A95E1F721503109A9F786278F709927EF
:1023C000AA27BB27892B8A2B8B2B19F084E88093B3
:1023D000B20486E090E090938904809388048CE1B5
:1023E00090E049CD123271F1143209F051C080E908
:1023F00090E00E94A506882309F44AC043E060E10A
:1024000080E990E00E94AD07809190049091910442
:10241000A0919204B0919304492F5A2F6B2F7727E4
:1024200050938D0440938C04992790938B04809350
:102430008A0480E190E09093B1048093B00485E039
:1024400090E09ECB0091B6041091B70405301105C1
:1024500009F015CD8091B4049091B5048C3E9C4553
:1024600008F00DCD8091C1036EE072E090E00E9413
:102470002906882309F403CD8091E1036EE072E020
:1024800090E00E942906882309F4F9CC81E03ACF34
:102490008091B304982F9F7D943419F0863009F011
:1024A00083C084EA90E00E94A506882309F47CC0DA
:1024B0008091B6049091B70484319105C1F42091C4
:1024C000B3042630A1F421E22093B2042091B80491
:1024D0003091B90430938B0420938A042091BA047C
:1024E0003091BB0430938D0420938C0449CB43E09E
:1024F00060E284EA90E00E94AD07909190048091A0
:10250000910410919204409193049C0130938A04A9
:1025100020938B042091B304042F0095243639F5C1
:1025200043E460E184EA90E00E94AD07809190046A
:1025300090919104101731F09095981719F094E04C
:102540009093B204982F812F90938D0480938C04E4
:1025500080E390E09093B1048093B00485E190E033
:1025600090938904809388048EEB9AE01ACC101320
:1025700016C0212F30E030938D0420938C048913F2
:1025800005C090E090938B0480938A0480E290E0F1
:102590009093B1048093B00483E190E0E1CF109375
:1025A0008C0440938D04EBCF8091B304843269F5A1
:1025B00088EB90E00E94A506882339F143E060E1B2
:1025C00088EB90E00E94AD071091900480919104F7
:1025D0008095181719F084E08093B2048DE692E09C
:1025E0000E94FA00812F90E090938D0480938C04D8
:1025F00010928B0410928A0480E190E09093B104D1
:102600008093B0048EE190E0BBCA8091B30484341F
:10261000C1F48CEC90E00E94A506882391F043E081
:1026200060E28CEC90E00E94AD0780E88093B204F9
:1026300080E290E09093B1048093B0048CE190E04C
:102640009FCA8091C10362E3869FC0011124835613
:1026500091098C39910508F067C08091C20362E04E
:1026600074E090E00E940906882309F45DC080911F
:10267000B304843209F058C000910F01802F80719B
:10268000409107015091080104FD04C040910901E7
:1026900050910A01001F0027001F21E0811101C095
:1026A00020E063E080E10E94490680E88093B20464
:1026B0003091900420919104832F922F422F4295C4
:1026C0004F702F70A4E096958795AA95E1F78F70CB
:1026D0003F709FE0942792279827391719F094E8C4
:1026E0009093B2046091B4047091B504683F714155
:1026F00028F49091B20492609093B20440938A04BB
:1027000010928B04A0E12A9F90011124282B309372
:102710008D0420938C0480E190E09093B104809329
:10272000B0048AE190E02CCA80EE90E00E94A506F9
:10273000882371F18091B304843251F543E060E164
:1027400080EE90E00E94AD078091E30368E072E0C4
:1027500090E00E9429068823D9F0809190049091FE
:10276000910498279F3FA1F490E090938D0480936B
:102770008C0480E190E09093B1048093B00489E1EF
:1027800090E0909389048093880488ED94E009CBCD
:102790008091B304803709F04FC041E068E084EFD6
:1027A00090E00E94AD078091900490919104A091D7
:1027B0009204B0919304892B8A2B8B2BE9F541E18C
:1027C0006FE184EF90E00E94AD07809090049090BC
:1027D0009104A0909204B09093044FE461E184EFDF
:1027E00090E00E94AD079091910480919204892716
:1027F0009827892790938D0480938C04809290046D
:1028000090929104A0929204B092930490928B04BF
:1028100080928A04B0928F04A0928E048BE190E0A3
:10282000909389048093880488E390E09093B104A6
:102830008093B00480E805CA8091B3048F7B843014
:1028400009F040C08091C10360E073E290E00E9413
:1028500029068823B9F18091C20360E871E190E014
:102860000E940906882371F143E060E280E391E071
:102870000E94AD0780919004909191043091920450
:1028800020919304909589131DC0922F90959317D2
:10289000C9F04FE150E0509389044093880490E0E0
:1028A00090938B0480938A04C90190938C04809345
:1028B0008D0480E290E09093B1048093B0048AE7A5
:1028C00095E06FCA8091B304823108F43BC192E372
:1028D000F70111929A95E9F743E060E08250990B75
:1028E000242F30E0281739079CF423553C4FD90199
:1028F00053962C91223308F025C1F701E20FF11D08
:1029000030813F5F3083621708F4622F4E5FE8CF5B
:102910001EAA1DAA9E012B5C3F4FAE014A5C5F4F71
:10292000C7010E94080B882309F40CC182E3F70158
:1029300011928A95E9F72091B3042250330B44E0B9
:1029400060E0842F90E0821793079CF483559C4F9E
:10295000DC0153968C91823308F0F4C0F701E80F44
:10296000F11D90819F5F9083681708F4682F4E5F78
:10297000E8CF1CAA1BAA9E012D5C3F4FAE014C5C08
:102980005F4FC7010E94080B882309F4DBC08091C8
:10299000B30486951FEF180FCBA8CC2011F01EEFC3
:1029A000180F212F30E03093B1042093B004290197
:1029B000B1E04B1A510857FE04C02901EEE14E0E5A
:1029C000511CF5E055944794FA95E1F74FAAADA84C
:1029D000A11003C0CC2009F4B5C02CA882E3289E26
:1029E000100111248EA8889E40011124A89E500138
:1029F0001124C89E60011124E3E06E2E712C812FFA
:102A0000113208F080E29BA9992309F47BC022E0EF
:102A100030E0309389042093880400E020E0A60190
:102A2000662D0E9449068091900490919104A09196
:102A30009204B091930424E0729EF0011124E056B8
:102A4000FB4F80839183A283B38330E4630E1052E3
:102A500073944FA9471598F62091B4043091B504AA
:102A6000203D3740E8F4F201EE0FFF1FEE0FFF1F8D
:102A7000E056FB4F00811181228133814091BC04DB
:102A80005091BD046091BE047091BF0404171507F6
:102A90002607370729F42091B20421602093B2045D
:102AA0008093BC049093BD04A093BE04B093BF0474
:102AB0002091C10392E3299F900111243093950442
:102AC000209394048091C203899FC00111249093A4
:102AD00097048093960490929D0480929C04309277
:102AE0009F0420929E04A114B10419F1C114D104D1
:102AF00099F4B0929904A092980430929B04209289
:102B00009A04BDC9A1E0B0E0B0938904A093880401
:102B100000E021E0A50184CFD0929B04C0929A04EA
:102B20009092990480929804B0929D04A0929C0483
:102B3000A6C99092990480929804D0929B04C09266
:102B40009A049DC9E091B304E63008F498C911E0F5
:102B500025EC3DE94CE151E8F0E00AE0612F70E03E
:102B6000CB0102968E179F077CF583559C4FDC01A5
:102B700053968C9163557C4FDB0153966C91809FEB
:102B80006001112498E0699FD0011124CA16DB0668
:102B9000C8F0609FB0011124A8E08A9FC0011124F1
:102BA000DD24D3946817790710F462E0D62E63E928
:102BB00071E080E091E00E94A2189B01AC012D25FC
:102BC0001F5FCCCFD12CF3CF20939004309391048E
:102BD000409392045093930480E290E09093B10468
:102BE0008093B004109289041092880448C900E0D0
:102BF00080919403081708F066C0C02ED12CE09194
:102C00009103F0919203EC0DFD1D61E080810E9423
:102C10005E02E0919103F0919203EC0DFD1D60E0E6
:102C200080810E94300281E090E0A0E0B0E0002EC0
:102C300004C0880F991FAA1FBB1F0A94D2F74C012A
:102C40005C01A094B094512C80919303581620F508
:102C5000652C712CE0918F03F0919003E60DF71D28
:102C600080810E940702F3013496892B61F4EE0FF4
:102C7000FF1FE35DFC4F8081918188299929918311
:102C800080835394E1CFEE0FFF1FE35DFC4F808103
:102C900091818A219B21F3CFE0919103F0919203DE
:102CA000EC0DFD1D61E080810E9430028091910356
:102CB00090919203C80ED91E60E0D6018C910E94BB
:102CC0005E020F5F95CF2DE2822E23E0922E89E6E1
:102CD00093E06401F601278D30A1232B31F4148E8B
:102CE0002FEF3FEF368F258F11A236E0C30ED11C98
:102CF0008C159D0579F700E096E0692E809193038D
:102D0000081708F052C0712CA02EB12CAA0CBB1CC5
:102D1000C5018B5C9C4F5C0120919403721608F0F6
:102D200042C0D5016D917C91072C02C076956795C4
:102D30000A94E2F7029F90011124270D311DEDE264
:102D4000F3E080E0458D568D2417350709F4B6C1B0
:102D50008F5F36968A30B1F760FF23C0EDE2F3E073
:102D600090E080E0448D411117C0E0918D03F09117
:102D70008E03E20FF31F4081689EF001699EF00D03
:102D80001124E35DFC4F448F368F258F10A2178EE0
:102D900061E00E946E0105C0019636968A30910569
:102DA00009F77394B9CF0F5FA9CF80E0F40191A127
:102DB0009111892FF6E08F0E911CC814D904B1F738
:102DC0009FB7F894409180025091810260918202F5
:102DD000709183029FBF4093890350938A0360934D
:102DE0008B0370938C03882309F4C5C080914E0334
:102DF000882309F4C0C080914C0390914D03019742
:102E000009F0B9C0809149038111B8C0112359F06C
:102E1000612F84E892E00E949E0367EA71E084E8F3
:102E200092E00E94E30780917A02811164C110331D
:102E30000CF446C11A330CF044C020917602309154
:102E400077024091780250917902203866E936077E
:102E500068E946075105E4F4AAE0B0E00E94D418FE
:102E6000212F012E000C330B205331094901330F60
:102E7000AA08BB08DC01CB01880D991DAA1DBB1D4A
:102E80008093760290937702A0937802B0937902B0
:102E900080E00E949B076AEA71E08CE993E00E945F
:102EA000E30780E00E949B076091760270917702B1
:102EB00080917802909179020E94F2071F3209F402
:102EC00028C180917A02882309F41AC110330CF4C6
:102ED000E5C01A330CF054C020917602309177028D
:102EE0004091780250917902203886E9380788E9C4
:102EF00048075105E4F4AAE0B0E00E94D418212F5D
:102F0000012E000C330B205331094901330FAA085D
:102F1000BB08DC01CB01880D991DAA1DBB1D809348
:102F2000760290937702A0937802B093790289E0B9
:102F30000E949B076AEA71E08CE993E00E94E30734
:102F400089E00E949B0760917602709177028091E0
:102F50007802909179020E94F207133609F09EC020
:102F600010927602109277021092780210927902F3
:102F70000E94A20793C01092990348CF182F48CF00
:102F80001D3359F78090760290907702A0907802D6
:102F9000B09079028B3209F442C014F58A3209F4F8
:102FA00060C00E94A20760917602709177028091C2
:102FB0007802909179020E94F207109272021092A8
:102FC000730210927402109275021092760210929F
:102FD0007702109278021092790210927A025EC003
:102FE0008D3291F18F32E9F681149104A104B1047C
:102FF00009F44CC060917202709173028091740266
:1030000090917502A50194010E9402192093760205
:10301000309377024093780250937902C2CF809127
:10302000720290917302A0917402B0917502880DA2
:10303000991DAA1DBB1D8093760290937702A093E1
:103040007802B0937902ADCF8091720290917302B1
:10305000A0917402B091750288199909AA09BB0957
:10306000EACF209172023091730240917402509124
:103070007502C501B4010E94A21860937602709394
:10308000770280937802909379028BCF0E94A207F7
:1030900062EB71E08CE993E00E94E30780E090E04E
:1030A000892B11F40C94550D0E946803882311F4A8
:1030B0000C94550D0E9400000C94550D617069CE62
:1030C0001D3211F58091760290917702A0917802DD
:1030D000B09179028093720290937302A09374026C
:1030E000B0937502109276021092770210927802D5
:1030F0001092790212C01D3281F01B3239F40DC0DA
:103100001D3309F02ACF4DCF1B32E1F21A3209F0FC
:10311000D5CE80917A028823A9F210937A0288E0B2
:103120000E949B0741E0612F8CE993E00E947907A0
:10313000C8CEFB01DC0102C005900D924150504009
:10314000D8F70895DB018F939F930E94D418BF9105
:10315000AF91A29F800D911DA39F900DB29F900DE6
:1031600011240895A1E21A2EAA1BBB1BFD010DC05C
:10317000AA1FBB1FEE1FFF1FA217B307E407F50727
:1031800020F0A21BB30BE40BF50B661F771F881F03
:10319000991F1A9469F760957095809590959B0199
:1031A000AC01BD01CF0108950E94DF18A59F900DCD
:1031B000B49F900DA49F800D911D11240895A29F8E
:1031C000B001B39FC001A39F700D811D1124911DFB
:1031D000B29F700D811D1124911D0895AA1BBB1B68
:1031E00051E107C0AA1FBB1FA617B70710F0A61B07
:1031F000B70B881F991F5A95A9F780959095BC0128
:10320000CD010895052E97FB1EF400940E94191914
:1032100057FD07D00E94B21807FC03D04EF40C945F
:10322000191950954095309521953F4F4F4F5F4F5D
:10323000089590958095709561957F4F8F4F9F4F22
:103240000895EE0FFF1F0590F491E02D0994F89476
:02325000FFCFAE
:103252001A00269E0002049E0029029E0007010019
:103262006E00000006070809020304053132332B01
:103272003435362D3738392A63303D2F632B3D00E4
:103282002A3D2F00002D00003000000000323300E4
:1032920034353600373839000000000000000000E5
:1032A20000000000000000000000000031000000EB
:1032B200009E03FE022B03EB035C033A034E030062
:1032C200000000C8049B04DF0571049404810472A9
:1032D2000400000000F102F502F90200000000A75C
:1032E20007FE02DF05DE0543616C63756C61746F76
:1032F2007220696E6974000D0A00202020202020AF
:0833020020004552524F520019
:00000001FF
