:020000040000FA
:100000000C94D0000C94F8000C94F8000C94F800B8
:100010000C94F8000C94F8000C94F8000C94F80080
:100020000C94610A0C94F8000C94F8000C94F800FD
:100030000C94F8000C94F8000C94F8000C94F80060
:100040000C94A0080C94F8000C9410090C94EA0885
:100050000C94F8000C94F8000C94F8000C94F80040
:100060000C9442090C94F80017002860095802B05B
:1000700004580258025802102D000000060026E025
:100080002070100E022A060E022602806E00500713
:10009000050026E02070100E022A060E020E020055
:1000A00041000000130026801180113002900630BC
:1000B000023002006E0000001E002638081C040EEC
:1000C000022A060E020E0200320000001C00262248
:1000D0000B220BEE026608EE02EE02806E000000BC
:1000E000190026F603BC050802BC050802D401006D
:1000F0004B0000001B00261F015D033E023E021F55
:10010000015D03A06E00000004002604010C03043E
:10011000011C0704010C03006E0000000B00258089
:100120000DC006B0011005B001B001008200000052
:1001300007002600238011300290063002300200B2
:100140006E00400700000000240027002A00000085
:100150000000250028002B0000000008000201001C
:100160000003040700000000000000000000000081
:1001700023002600290004040404040404040202E9
:100180000202020203030303030301020408102016
:100190004080010204081020010204081020510BC5
:1001A00011241FBECFEFD8E0DEBFCDBF24E0A2EA0E
:1001B000B1E001C01D92AD3AB207E1F711E0A0E055
:1001C000B1E0ECE3F2E302C005900D92A23AB10770
:1001D000D9F710E0C0EDD0E004C02197FE010E94E5
:1001E0001619CF3CD107C9F70E94170C0C941C19A3
:1001F0000C94000020919E0430919F042817390729
:1002000028F480919C04816080939C04089520913F
:10021000A00380919D0440E0281798F5422F41707B
:100220003091A303311121C0E22FF0E0E956FC4FD9
:10023000838992E3899FF0011124ACEEBFEF442340
:1002400011F0A4E1B0E06091A4037091A503CB018B
:10025000969587958E0F9F1F8A0F9B1F0E94E3180C
:1002600077277093A2036093A1038091A1039091DB
:10027000A203009771F03F5F3817190620F43093FE
:10028000A303842F08951092A3032F5F2093A0034C
:10029000F8CF42E0F6CF96E0899FD0011124A95E05
:1002A000BC4F90967C936E935F9791E091969C9350
:1002B0009197E0918403F0918503909183039923B2
:1002C00039F0309751F0811108C0809133030994BF
:1002D000309719F05C968C91FACF0895CF92DF9207
:1002E000EF92FF920F931F9396E0899FF0011124E4
:1002F000E95EFC4F11A2278D30A12130310551F16B
:1003000078F02230310509F451C02330310509F469
:1003100052C01F910F91FF90EF90DF90CF90089502
:100320006623B9F361E070E00E944B012FB7F894A7
:1003300080916A0290916B02A0916C02B0916D0263
:100340002FBF80936F0390937003A0937103B093BA
:100350007203DFCF9FB7F894C0906A02D0906B020F
:10036000E0906C02F0906D029FBF00916F031091BE
:1003700070032091710330917203C01AD10AE20A0E
:10038000F30A009181031091820330E020E00C1504
:100390001D052E053F0550F462E070E01F910F919E
:1003A000FF90EF90DF90CF900C944B016111B1CF93
:1003B00063E070E0F3CF70E060E0F0CF833081F075
:1003C00028F4813099F08230A9F008958730A9F09F
:1003D0008830C9F08430B1F4809180008F7D03C0F3
:1003E000809180008F7780938000089584B58F7707
:1003F00084BD089584B58F7DFBCF8091B0008F7749
:100400008093B00008958091B0008F7DF9CFCF9395
:10041000DF93282F30E0F901E85AFE4F8491F9016B
:10042000E657FE4FD491F901EA58FE4FC491CC2310
:10043000A1F081110E94DE01EC2FF0E0EE0FFF1F12
:10044000E459FE4FA591B491EC91ED2381E090E049
:1004500009F480E0DF91CF91089580E090E0FACF39
:100460001F93CF93DF93282F30E0F901E85AFE4F16
:100470008491F901E657FE4FD491F901EA58FE4FF5
:10048000C491CC23A9F0162F81110E94DE01EC2F1C
:10049000F0E0EE0FFF1FE25BFE4FA591B4918FB726
:1004A000F894EC91111108C0D095DE23DC938FBF36
:1004B000DF91CF911F910895DE2BF8CFCF93DF937B
:1004C00090E0FC01E657FE4F24918A589E4FFC01B4
:1004D00084918823C9F090E0880F991FFC01EC5BA0
:1004E000FE4FA591B491FC01E25BFE4FC591D49102
:1004F00061110DC09FB7F8948C91209582238C9345
:100500008881282328839FBFDF91CF91089562308F
:1005100051F49FB7F8943C91822F809583238C935C
:10052000E8812E2BEFCF8FB7F894EC912E2B2C93E4
:100530008FBFEACF3FB7F89480916602909167022F
:10054000A0916802B091690226B5A89B05C02F3F13
:1005500019F00196A11DB11D3FBFBA2FA92F982FE9
:100560008827BC01CD01620F711D811D911D42E0E4
:10057000660F771F881F991F4A95D1F708958F92AC
:100580009F92AF92BF92CF92DF92EF92FF924B0178
:100590005C010E949A026B017C010E949A026C1914
:1005A0007D098E099F09683E734081059105A8F376
:1005B00021E0821A9108A108B10888EEC80E83E0F4
:1005C000D81EE11CF11C81149104A104B10429F787
:1005D000FF90EF90DF90CF90BF90AF909F908F9063
:1005E0000895862F642F0C945E02862F642F0C943E
:1005F0003002862F0C94070208950895AF92BF929F
:10060000CF92DF92EF92FF920F931F93CF93DF93DE
:100610006C017B018B01040F151FEB015E01AE180D
:10062000BF08C017D10759F06991D601ED91FC912F
:100630000190F081E02DC6010995892B79F7C5015C
:10064000DF91CF911F910F91FF90EF90DF90CF90AE
:10065000BF90AF900895FC01538D448D252F30E05D
:10066000842F90E0821B930B541710F0CF960895BF
:1006700001970895FC01918D828D981761F0A28DEC
:10068000AE0FBF2FB11D5D968C91928D9F5F9F73B2
:10069000928F90E008958FEF9FEF0895FC01918D68
:1006A000828D981731F0828DE80FF11D858D90E0D5
:1006B00008958FEF9FEF0895FC01918D228D892F72
:1006C00090E0805C9F4F821B91098F73992708955A
:1006D0008EE692E00E945C0321E0892B09F420E081
:1006E000822F089580E090E0892B29F00E94680312
:1006F00081110C9400000895FC01A48DA80FB92F5E
:10070000B11DA35ABF4F2C91848D90E001968F7339
:100710009927848FA689B7892C93A089B1898C9158
:10072000837080648C93938D848D981306C00288A7
:10073000F389E02D80818F7D80830895EF92FF9271
:100740000F931F93CF93DF93EC0181E0888F9B8DF4
:100750008C8D98131AC0E889F989808185FF15C0AE
:100760009FB7F894EE89FF896083E889F9898081D1
:100770008370806480839FBF81E090E0DF91CF91A0
:100780001F910F91FF90EF900895F62E0B8D10E0C2
:100790000F5F1F4F0F731127E02E8C8D8E110CC031
:1007A0000FB607FCFACFE889F989808185FFF5CF7C
:1007B000CE010E947C03F1CFEB8DEC0FFD2FF11DDC
:1007C000E35AFF4FF0829FB7F8940B8FEA89FB89B9
:1007D00080818062CFCFCF93DF93EC01888D882317
:1007E000B9F0AA89BB89E889F9898C9185FD03C094
:1007F000808186FD0DC00FB607FCF7CF8C9185FF79
:10080000F2CF808185FFEDCFCE010E947C03E9CF3E
:10081000DF91CF91089520910A02260F3327331FCD
:1008200021323105ECF420912E02FC0190E080E0B1
:10083000243069F082E00895A0910A022191AC0170
:1008400046515E4FA40FB52FB11D2C93019686170C
:1008500098F380910A02680F60930A0280E008957D
:1008600081E0089510922E0281E080933002109270
:100870002F0261E082E10E94300261E083E10E9488
:100880003002E9EBF0E080818E7F808380818D7F74
:10089000808388E48093B80085E48093BC00089549
:1008A000CF93DF9391E09093E9018823B9F0C09151
:1008B000B800D091BA008091BC008A7B8093BC00C4
:1008C00060E082E10E94300260E083E10E94300239
:1008D0000E943204D093BA00C093B800DF91CF9148
:1008E00008950895E0915B0280915A02E81730F470
:1008F000F0E0EC53FE4F808190E008958FEF9FEF82
:10090000089590915B0280915A022FEF3FEF981764
:1009100048F4E92FF0E0EC53FE4F208130E09F5F78
:1009200090935B02C901089580915A0290915B02F5
:10093000891B990B0895CF92DF92EF92FF920F934C
:100940001F93CF93DF937C01CB018A012091C301D8
:10095000222389F0EB016B01C40ED51ECC15DD05F9
:1009600069F06991D701ED91FC910190F081E02D42
:10097000C7010995F3CF642F0E940B04C801DF91D2
:10098000CF911F910F91FF90EF90DF90CF9008953E
:10099000CF93DF931F92CDB7DEB769832091C30158
:1009A0002223F9F020915802203258F021E030E063
:1009B000FC013383228390E080E00F90DF91CF91A0
:1009C000089580915902E82FF0E0ED55FE4F99818E
:1009D00090838F5F809359028093580281E090E06A
:1009E000ECCF61E0CE0101960E940B04F7CFCF92CD
:1009F000DF92EF92FF920F931F93CF93DF93FC014F
:100A0000C48121E02093C301C093A2011092590236
:100A1000109258028385682B8BE093E00E94C804F3
:100A2000D0915802D13208F092C00E949A026B0114
:100A30007C0180912E02811165C082E080932E029C
:100A400081E0809330028FEF80932D02109252024A
:100A5000D0935102A3EAB1E0E1E3F2E080E0D813E1
:100A600085C01092530280915302CC0FC82BC093C3
:100A7000530280912F02813009F07CC010922F0226
:100A80000E949A026B017C01809153028093BB000B
:100A90008091E5019091E601A091E701B091E80114
:100AA000892B8A2B8B2B99F00E949A020091E501E9
:100AB0001091E6012091E7013091E8016C197D0960
:100AC0008E099F090617170728073907E0F180915B
:100AD000BC0083FDD9CF85EC8093BC000E949A02B4
:100AE0006B017C0180912E02823009F445C0809117
:100AF0002D028F3F61F180912D02803241F1809172
:100B00002D0225C08091E5019091E601A091E701B9
:100B1000B091E801892B8A2B8B2B09F48ACF0E9494
:100B20009A020091E5011091E6012091E7013091D0
:100B3000E8016C197D098E099F0906171707280718
:100B4000390708F076CF8091E4010E94500410929A
:100B50005902109258021092C301DF91CF911F9158
:100B60000F91FF90EF90DF90CF9008959D9191931A
:100B70008F5F75CF85EEB0CF8091E5019091E60152
:100B8000A091E701B091E801892B8A2B8B2B09F406
:100B9000A9CF0E949A020091E5011091E6012091EF
:100BA000E7013091E8016C197D098E099F0906174C
:100BB00017072807390708F095CFC5CF089590E0AB
:100BC00080E008958F929F92AF92BF92CF92DF9272
:100BD000EF92FF924B015C010E949A026B017C0133
:100BE00024E0C21AD108E108F1080E949A026C19A7
:100BF0007D098E099F09681579058A059B05A8F36B
:100C0000FF90EF90DF90CF90BF90AF909F908F902C
:100C1000089542E3489F9001499F300D11242C5EB6
:100C20003F4F7695679576956795CB01880F991F0D
:100C3000860F971F8217930750F485E0869FA001C7
:100C4000879F500D112481E04217530708F480E07C
:100C5000089542E3489F9001499F300D112424518B
:100C600031097695679576956795CB01880F991F21
:100C7000860F971F8217930750F485E0869FA00187
:100C8000879F500D112481E04217530708F480E03C
:100C900008954F925F926F927F929F92AF92BF9210
:100CA000CF92DF92EF92FF920F931F93CF93DF9338
:100CB000182F5A01922EC62FD0E0C655DC4F412C7A
:100CC000512C32014394C12CD12C76011123F1F027
:100CD0009920B1F08881B50190E00E942906002397
:100CE00069F1CC0CDD1CEE1CFF1C882311F068940C
:100CF000C0F8440C551C661C771C11502296E6CF98
:100D00008981B50190E00E940906E9CFC0927A047A
:100D1000D0927B04E0927C04F0927D04DF91CF912D
:100D20001F910F91FF90EF90DF90CF90BF90AF9009
:100D30009F907F906F905F904F9008958823C9F2A5
:100D4000C428D528E628F728D4CFCF93DF93EC0129
:100D5000FC013396659174918091AB0390E00E9401
:100D60002906882359F0FE0135966591749180918A
:100D7000AC0390E0DF91CF910C94090680E0DF9105
:100D8000CF910895E2E9F3E08AE190E092838183D4
:100D900085E090E09483838361E080810C945E021F
:100DA0008091AB048F3F11F42D98089560E00C946E
:100DB0003002882349F08091AB048F3F11F42D9AC3
:100DC000089561E00C9430020C94D0068F929F92AB
:100DD000AF92BF92CF92DF92EF92FF92CF936C01CE
:100DE0000E949A024B015C01F12CE12C88E0C80EB4
:100DF000D11CE11CF11CC80CD91CEA1CFB1CC0E076
:100E0000F89461E0809192030E943002E091950392
:100E1000F0919603E230F10538F0EE0FFF1FEE0F70
:100E2000FF1F35973197F1F760E0809192030E94A0
:100E300030027894C11103C081E00E94D9068091EC
:100E4000930390919403880E991EA11CB11C0E94DB
:100E50009A026C157D058E059F0558F0CF91FF9085
:100E6000EF90DF90CF90BF90AF909F908F900C94B9
:100E7000D006C1E0681579058A059B0540F3C0CF0F
:100E80000E94C20680E093E20E94E60660EC78E0F1
:100E900080E090E00E94E20580E392E00C94E60698
:100EA0000E94C20680EE90E20E94E60668E378E0C7
:100EB00080E090E00E94E2058EE092E00C94E6066D
:100EC0000F931F93CF938C01C62F0E94F7046C2FB2
:100ED0006460C8010E94F7046C2F6B7FC8010E94F8
:100EE000F70483EC90E00197F1F7CF911F910F91F8
:100EF00008950F931F93CF93DF938C01D62FC42FA8
:100F0000607F642B0E94600780E1D89FB0011124AC
:100F10006C2BC801DF91CF911F910F910C9460074A
:100F200040E061E086E893E00E9479078BE39FE16F
:100F30000197F1F70895682F606840E086E893E034
:100F40000C9479070E94900780E00C949B0741E085
:100F50000E94790781E090E00895FF920F931F931C
:100F6000CF93DF93CDB7DEB764970FB6F894DEBFAB
:100F70000FBECDBF162FF42E44E150E0BC01CE01D0
:100F800001960E948E180889802F807148855985A6
:100F900004FD02C04A855B85001F0027001F21E079
:100FA000811101C020E06F2D812F0E9449066496B7
:100FB0000FB6F894DEBF0FBECDBFDF91CF911F916A
:100FC0000F91FF900895FB0101900020E9F7319700
:100FD000AF01461B570BDC01ED91FC910280F381C0
:100FE000E02D0994CF92DF92EF92FF920F931F931F
:100FF000CF93DF93CDB7DEB7A1970FB6F894DEBFDE
:101000000FBECDBF6B017C01F7FE3EC041E06DE23B
:1010100086E893E00E94790722273327A9012C193B
:101020003D094E095F0919A28E010F5D1F4F9AE01D
:10103000C92ED12CE12CF12CCA01B901A7019601CE
:101040000E94A718605DF80162938F012115310598
:101050004105510589F790E080E0309729F0BF0104
:1010600086E893E00E94E3070196A1960FB6F894F4
:10107000DEBF0FBECDBFDF91CF911F910F91FF90CB
:10108000EF90DF90CF900895AC019B0119A28E01E3
:101090000F5D1F4F8AE0C82ED12CE12CF12CCA0124
:1010A000B901A70196010E94A718605DF80162933B
:1010B0008F01211531054105510589F790E080E048
:1010C000309799F2BF0186E893E00E94E307CDCF05
:1010D00085ED8093BC008091E5019091E601A0919F
:1010E000E701B091E8010796A11DB11D23E0B69577
:1010F000A795979587952A95D1F72091BC0024FD57
:1011000003C010922E0208954091E5015091E6012E
:101110006091E7017091E801452B462B472B69F35D
:101120000097A105B10541F02AE22A95F1F700C028
:101130000197A109B109E1CF8091E4010C94500419
:101140001F920F920FB60F9211242F933F938F93FC
:101150009F93AF93BF9380916A0290916B02A0918D
:101160006C02B0916D023091650223E0230F2D37A0
:1011700058F50196A11DB11D2093650280936A0266
:1011800090936B02A0936C02B0936D028091660203
:1011900090916702A0916802B09169020196A11D29
:1011A000B11D8093660290936702A0936802B0938A
:1011B0006902BF91AF919F918F913F912F910F90B5
:1011C0000FBE0F901F90189526E8230F0296A11DC1
:1011D000B11DD2CF1F920F920FB60F9211242F93F1
:1011E0003F934F935F936F937F938F939F93AF93AF
:1011F000BF93EF93FF938EE692E00E947C03FF91F2
:10120000EF91BF91AF919F918F917F916F915F917E
:101210004F913F912F910F900FBE0F901F901895F7
:101220001F920F920FB60F9211242F938F939F93BB
:10123000EF93FF93E0917E02F0917F028081E09135
:101240008402F091850282FD1BC09081809187020B
:101250008F5F8F7320918802821741F0E09187029F
:10126000F0E0E259FD4F958F80938702FF91EF9157
:101270009F918F912F910F900FBE0F901F901895F7
:101280008081F4CF1F920F920FB60F9211242F93EB
:101290003F934F935F936F937F938F939F93AF93FE
:1012A000BF93EF93FF938091B900887F803609F454
:1012B0004AC0F0F5883209F4A7C018F5803109F466
:1012C0009BC0B8F4882309F4F9C0883009F494C0AD
:1012D000FF91EF91BF91AF919F918F917F916F910E
:1012E0005F914F913F912F910F900FBE0F901F90E4
:1012F0001895883109F488C0803251F780932D0207
:1013000014C0803409F49DC040F48033B9F38833AD
:10131000F9F680932D0285ECB0C0803509F485C0C4
:10132000883509F496C0883499F60E946808D0CFB1
:10133000883909F48CC038F5883729F050F488369C
:1013400011F0803729F683E080932E0210922C0250
:1013500057C0883809F47BC0803919F0803809F00B
:10136000B7CF80912C02803208F071C0E0912C023E
:1013700081E08E0F80932C028091BB00F0E0E45F4F
:10138000FD4F80833DC0803B39F0E0F4803A09F4A2
:1013900079C0883A09F09CCF84E080932E021092A5
:1013A0000B0210920A02E0915602F0915702099541
:1013B00080910A0281110FC081E080930A0210928D
:1013C000EA0109C0803C09F4A6CF883C09F4A3CF08
:1013D000883B09F07DCFE0910B0281E08E0F809376
:1013E0000B02F0E0E651FE4F80818093BB009091AC
:1013F0000B0280910A0229C0809153028093BB00A6
:1014000085EC8093BC0064CF909152028091510290
:10141000981758F5E091520281E08E0F80935202A6
:10142000F0E0EF5CFD4F8081E9CFE091520281E076
:101430008E0F809352028091BB00F0E0EF5CFD4F75
:10144000808390915202809151029817C8F285E8EA
:10145000D8CFE091520281E08E0F809352028091AA
:10146000BB00F0E0EF5CFD4F808380913002811182
:101470005CCF81E080932F0284EA8093BC001092BD
:101480002E0226CF85EC8093BC0010922E02809114
:101490002C02803230F4E0912C02F0E0E45FFD4F4A
:1014A000108260912C0270E0E0915402F09155029C
:1014B0008CE092E0099510922C020ACF10922D0236
:1014C00034CF1F920F920FB60F9211242F933F9398
:1014D0004F935F936F937F938F939F93AF93BF933C
:1014E000CF93EF93FF93E0919903F0919A03C0811A
:1014F00080919B03C82380919C0390919D03209130
:101500009C0330919D032F3F3F4F29F0019690930C
:101510009D0380939C0320919703211115C0C11155
:101520004BC0813A910558F01092A6039093A903FD
:101530008093A80381E08093A70380939703109280
:101540009D0310929C0338C0213099F4CC23A1F163
:10155000E091A7032E0F2093A703F0E0E956FC4F7C
:101560008F3F910519F010F08FEF90E0838B82E0B0
:10157000E4CF223009F047C0E091A703813A9105FA
:1015800010F4E73CA0F1E83C18F081E08093A6035A
:101590008091A8039091A90390939F0480939E0447
:1015A000E0939D0483E080939703E0919E03F09184
:1015B0009F03309709F009958091AC04882329F0A6
:1015C00081E0C11180E00E94D906FF91EF91CF9197
:1015D000BF91AF919F918F917F916F915F914F914B
:1015E0003F912F910F900FBE0F901F901895C11132
:1015F000E3CF91E09E0F9093A703F0E0E956FC4FF4
:10160000838B81E09ACF2330B9F6C111D5CF97CF24
:10161000DF92EF92FF920F931F93CF93DF93EC0132
:10162000D62E8A017901F0E090E080E030E0E0E041
:10163000DE01AE0FB11D2C91FF5F222339F0320F76
:101640002E9F800D911D11241C92F0E03323B9F0E0
:10165000DE1611F0F23098F0232F2695820F911D9F
:10166000632F70E00E94E318DE01A60FB11D3C93CA
:10167000D8013C9131110FC06C9390E080E0EF5F96
:10168000DE16B0F681E0DF91CF911F910F91FF90B0
:10169000EF90DF900895D7013C91332369F380E008
:1016A000F2CF109271021092700288EE93E0A0E0E7
:1016B000B0E08093720290937302A0937402B0938F
:1016C00075022BE431E030936F0220936E0225EC1B
:1016D00030E030937B0220937A0224EC30E03093A8
:1016E0007D0220937C0220EC30E030937F02209337
:1016F0007E0221EC30E0309381022093800222ECC4
:1017000030E0309383022093820226EC30E0309365
:101710008502209384021092870210928802109210
:10172000890210928A0210920E0310920D03809388
:101730000F0390931003A0931103B09312038DE550
:1017400091E090930C0380930B038FEF8093AB0495
:101750001092980381E080939B0389E290E090933C
:101760009A038093990350981092920310928903E0
:101770001092880389E791E0909387038093860312
:1017800087E280938A0380E180938F0382E08093D5
:101790009003109291031092190310921D0310925E
:1017A0001C0310921E038FE691E090931803809320
:1017B0001703E3E3F3E08FE693E0108214821382D1
:1017C000158236968E179F07C1F788E191E09093B6
:1017D0007A038093790384E191E090937C03809372
:1017E0007B0384E080937D0380937E038CE191E012
:1017F00090937803809377038AE090E0909380033E
:1018000080937F0384EF91E0909382038093810320
:101810001092850310928403109273031092740344
:101820001092750310927603109283030895CF935C
:10183000DF93CDB7DEB7E7970FB6F894DEBF0FBEE4
:10184000CDBF789484B5826084BD84B5816084BD49
:1018500085B5826085BD85B5816085BD80916E004E
:10186000816080936E00109281008091810082607F
:1018700080938100809181008160809381008091BC
:1018800080008160809380008091B10084608093AB
:10189000B1008091B00081608093B00080917A00A7
:1018A000846080937A0080917A00826080937A00CD
:1018B00080917A00816080937A0080917A008068BC
:1018C00080937A001092C100E0917E02F0917F0235
:1018D00082E08083E0917A02F0917B021082E091B5
:1018E0007C02F0917D028FEC808310928602E09161
:1018F0008202F091830286E08083E0918002F09181
:101900008102808180618083E0918002F091810278
:10191000808188608083E0918002F09181028081E3
:1019200080688083E0918002F091810280818F7DC8
:10193000808310925B0210925A0210925902109208
:1019400058020E9432048CEF92E0909357028093E9
:1019500056028DEF92E090935502809354021092BC
:101960008B0380919003823018F098E090938B0362
:1019700080938E0362E370E080E090E00E94BF02FB
:101980006091910386E893E00E94F70468EE73E0AB
:1019900080E090E00E94BF0260E386E893E00E944E
:1019A00060070BE416E4C8010197F1F760E386E8ED
:1019B00093E00E946007C8010197F1F760E386E8B1
:1019C00093E00E94600783E592E00197F1F760E2FF
:1019D00086E893E00E94600760918B03606240E0BC
:1019E00086E893E00E94790784E080938C0340E0CE
:1019F0006CE086E893E00E9479070E94900712E06D
:101A000010938D0340E066E086E893E00E9479073A
:101A100040E062E086E893E00E9479078BE39FE173
:101A20000197F1F708E00093910360E086E893E006
:101A30000E94F70480E00E949B0761E871E086E85D
:101A400093E00E94E3076CED75E080E090E00E9477
:101A5000BF020E9490078BE08093980300939B0342
:101A600083E290E090939A038093990323981092D5
:101A7000AC048FEF8093AB04259A1093B0001093C1
:101A8000B10084E68093B3008093B4001092B2005A
:101A900080919703833011F41092970384E0809330
:101AA00070009E012F5F3F4F79018091970310E0F6
:101AB000833009F0F3C18091A603882309F465C03F
:101AC00080E480939C04109273041092720410922C
:101AD0007704109276041092750410927404109298
:101AE0007A0410927B0410927C0410927D04109270
:101AF0009B0410929A0480919C04E091760486FDE8
:101B0000C3C110919D04812F8F7B843009F0BFC029
:101B10008091AB0360E073E290E00E942906882385
:101B200009F442C18091AC0390E0143009F048C040
:101B300060EC78E00E940906882309F435C18091A1
:101B4000AD0360E372E090E00E942906882309F467
:101B50002BC181E080939C048091A2049091A30406
:101B600090937504809374048091A4049091A504CB
:101B700090937704809376048091A0049091A104BF
:101B800090937304809372047AC110929C048091A4
:101B90007204909173049093A1048093A0048091A7
:101BA0007604909177049093A5048093A404809187
:101BB0007404909175049093A3048093A20483CF3E
:101BC00060E871E10E940906882309F4EDC043E052
:101BD00060E280E391E00E94AD0780917A049091E9
:101BE0007B0440917C0450917D04242F30E030939D
:101BF0007704209376049C012E3E67E8360721F592
:101C000083E090E09093730480937204852F90E0BA
:101C1000909375048093740480E290E090939B0409
:101C200080939A048AE795E00E94FA0080919C04D0
:101C300080FF25C128E030E03093730420937204C4
:101C4000806280939C041BC19095891310C090E022
:101C50009093750480937404852F809548130CC06D
:101C600087E090E09093730480937204D5CF309313
:101C7000750420937404F0CF89E090E0909373048E
:101C8000809372044093760450937704C5CF143642
:101C900009F08AC08CE191E00E94A506882309F42E
:101CA00083C043E060E18CE191E00E94AD07B09019
:101CB0007A040B2D10917B04BAE0CB2ED12C02308C
:101CC00080E21807F9F0ADE0CA2ED12C0A3A9AE565
:101CD0001907C1F0FCE0CF2ED12C0435A2E31A077E
:101CE00089F0EEE0CE2ED12C0330B1E01B0751F08D
:101CF0008FE0C82ED12C0332EBEC1E0719F07BE0ED
:101D0000C72ED12CB1268B2D82958F70B82643E239
:101D100060E28CE191E00E94AD0780917A0490919D
:101D20007B04A0917C04B0917D049C0164E0369515
:101D300027956A95E1F730937504209374042A2F50
:101D400030E03093770420937604282F2A27292720
:101D50003B2D3F70482F4F70341719F034E030930B
:101D60009C04FBE0CF16D10449F430919C0430610F
:101D700030939C0410937904009378042B1729F076
:101D800080919C04846080939C0480E390E0909315
:101D90009B0480939A04D0927304C09272048AE3E5
:101DA00097E00E94FA006BC080919D04803209F098
:101DB000B1C08091AB038A3008F0ACC041E06FE065
:101DC00088E091E00E94AD0780917A0490917B04B5
:101DD000A0917C04B0917D049C012F713327309336
:101DE00075042093740455E0B695A795979587954B
:101DF0005A95D1F7392F3370AC015527509377049A
:101E00004093760440919E0450919F04453654407F
:101E100008F07DC020919C04226020939C042091B6
:101E2000AA042F5F2093AA0420FF19C0213019F0C3
:101E300021E020939C043091A4044091A504282F14
:101E40002095231729F020919C04246020939C0462
:101E50003093760440937704392F3095337086E1C0
:101E600090E0311102C084E090E09093730480937D
:101E700072048FE090E090939B0480939A04E09129
:101E8000760410E0EB3120F4F0E0E45DFE4F1081C9
:101E900080919703833011F41092970381E080932F
:101EA00083038FB7F89440916A0250916B0260915E
:101EB0006C0270916D028FBF8091730390917403D7
:101EC000A0917503B0917603481B590B6A0B7B0BED
:101ED00080917F0390918003B0E0A0E08417950784
:101EE000A607B70710F00C94E41700E080917D037B
:101EF000081708F07CC6E0917903F0917A03E00FAF
:101F0000F11D62E080810E945E020F5FEFCF1092B0
:101F1000AA04A5CF88E690E00E94A50690919D04B2
:101F2000882309F445C09A3129F09A3219F0903289
:101F300009F03EC0892F90E0BC016150710977FD26
:101F4000BC017595679543E088E690E00E94AD0777
:101F500080917A0490917B04A0917C04B0917D04DF
:101F60009C012F773327309377042093760447E042
:101F7000B695A795979587954A95D1F7909375044F
:101F80008093740420919D0430E0C901019797FD6E
:101F9000C9019595879590939B0480939A0487E156
:101FA00090E0909373048093720488E292E0F9CEFB
:101FB00081E08093A00329E733E03093A5032093C9
:101FC000A4031092A3039E509B3108F0C0C08091DF
:101FD000AB038D3208F0BBC00E940701813009F0CD
:101FE000B6C000E0812C912C540110E09091A00328
:101FF00080919D049817C0F50E940701D82E0E9479
:102000000701D1100AC0813091F4880C991CAA1CD8
:10201000BB1C689480F81F5FE9CF31E0D31207C082
:10202000811105C0880C991CAA1CBB1CF4CF173069
:1020300009F08DC08091A003E82FF0E0E956FC4F35
:102040009389963340F39091A3039E5F9093A303EB
:102050002091A1033091A2039217130618F08F5F0D
:102060008093A00301E0D7CF80927A0490927B0402
:10207000A0927C04B0927D049401A6E03695279549
:10208000AA95E1F7812F90E00023D1F10197909379
:102090009B0480939A04C4018F73992790937904C9
:1020A000809378042F73332730937704209376043A
:1020B000D501C401FCE0B695A79597958795FA954B
:1020C000D1F78F7199279093750480937404A2FCC3
:1020D00006C0205C3F4F309377042093760480E95C
:1020E00080939C04A1FE03C088E980939C048DE149
:1020F00090E090937304809372048AED98E051CE3F
:1021000090939B0480939A04882D8F7390E0909312
:102110007704809376042F713327309375042093CE
:102120007404940122273071232B31F4805C9F4F7B
:10213000909377048093760480E880939C0493FEC8
:1021400003C088E880939C0480E190E0D2CF809126
:102150009D048A518F3208F0A5C08091AB0368E6D8
:102160007AE090E00E942906882309F49BC08091C0
:10217000AC0368E773E090E00E940906882309F445
:1021800091C083E08093A0038CEB91E09093A50332
:102190008093A4031092A3030E940701813009F0E9
:1021A00081C00E94070181117DC0812C912C5401B6
:1021B00010E09091A00380919D04981730F50E9443
:1021C0000701082F0E940701133049F408136AC061
:1021D0000E940701D82E0E940701D81263C0013067
:1021E00051F481115FC0880C991CAA1CBB1C689417
:1021F00080F81F5FDECF011155C0813009F052C059
:10220000880C991CAA1CBB1CF4CF812F90E09093E2
:102210009B0480939A0480927A0490927B04A0920B
:102220007C04B0927D04282D30E0892D90E013329B
:1022300000F540E840939C043093770420937604A3
:102240009093750480937404A0FE03C088E8809383
:102250009C04153128F080919C04806180939C043B
:1022600081E190E0909373048093720483E79AE095
:1022700098CD40E940939C043093770420937604F2
:102280009093750480937404C5019F7390937904AF
:1022900080937804B7FE03C088E980939C0482E1B0
:1022A00090E0E0CF10919D041C3319F0143009F038
:1022B00099C08091AB0360EE70E290E00E94290625
:1022C000882309F48FC01430A1F50091A004109167
:1022D000A1040630110509F0DBC08091AC0368E36E
:1022E00078E090E00E940906882309F4D1C080912B
:1022F000AD036EE072E090E00E942906882309F4A5
:10230000C7C081E880939C048091A2049091A304AB
:1023100090937504809374048091A4049091A50413
:10232000909377048093760410937304009372045F
:10233000A6CD8091AC0360E770E190E00E940906B1
:10234000882309F44FC043E06CE18CE790E00E94E1
:10235000AD0780E880939C0480917A0490917B047F
:10236000A0917C04B0917D048C019D0144E03695E0
:102370002795179507954A95D1F7A80110937704EB
:10238000009376048C019D0164E13695279517959D
:1023900007956A95D1F7109375040093740424E0AF
:1023A00030E060E0742F7F70670F04E0569547952A
:1023B0000A95E1F721503109A9F786278F709927EF
:1023C000AA27BB27892B8A2B8B2B19F084E88093B3
:1023D0009C0486E090E090937304809372048CE1F7
:1023E00090E049CD123271F1143209F051C080E908
:1023F00090E00E94A506882309F44AC043E060E10A
:1024000080E990E00E94AD0780917A0490917B046E
:10241000A0917C04B0917D04492F5A2F6B2F772710
:102420005093770440937604992790937504809392
:10243000740480E190E090939B0480939A0485E07B
:1024400090E09ECB0091A0041091A10405301105ED
:1024500009F015CD80919E0490919F048C3E9C457F
:1024600008F00DCD8091AB036EE072E090E00E9429
:102470002906882309F403CD8091CB036EE072E036
:1024800090E00E942906882309F4F9CC81E03ACF34
:1024900080919D04982F9F7D943419F0863009F027
:1024A00083C084EA90E00E94A506882309F47CC0DA
:1024B0008091A0049091A10484319105C1F42091F0
:1024C0009D042630A1F421E220939C042091A204D3
:1024D0003091A30430937504209374042091A404D4
:1024E0003091A504309377042093760449CB43E0E0
:1024F00060E284EA90E00E94AD0790917A048091B6
:102500007B0410917C0440917D049C013093740401
:102510002093750420919D04042F0095243639F5ED
:1025200043E460E184EA90E00E94AD0780917A0480
:1025300090917B04101731F09095981719F094E062
:1025400090939C04982F812F909377048093760426
:1025500080E390E090939B0480939A0485E190E05F
:1025600090937304809372048EEB9AE01ACC10134C
:1025700016C0212F30E0309377042093760489131E
:1025800005C090E0909375048093740480E290E01D
:1025900090939B0480939A0483E190E0E1CF1093A1
:1025A000760440937704EBCF80919D04843269F5E3
:1025B00088EB90E00E94A506882339F143E060E1B2
:1025C00088EB90E00E94AD0710917A0480917B0423
:1025D0008095181719F084E080939C048DE692E0B2
:1025E0000E94FA00812F90E0909377048093760404
:1025F000109275041092740480E190E090939B0413
:1026000080939A048EE190E0BBCA80919D0484344B
:10261000C1F48CEC90E00E94A506882391F043E081
:1026200060E28CEC90E00E94AD0780E880939C040F
:1026300080E290E090939B0480939A048CE190E078
:102640009FCA8091AB0362E3869FC0011124835629
:1026500091098C39910508F067C08091AC0362E064
:1026600074E090E00E940906882309F45DC080911F
:102670009D04843209F058C000910F01802F8071B1
:10268000409107015091080104FD04C040910901E7
:1026900050910A01001F0027001F21E0811101C095
:1026A00020E063E080E10E94490680E880939C047A
:1026B00030917A0420917B04832F922F422F4295F0
:1026C0004F702F70A4E096958795AA95E1F78F70CB
:1026D0003F709FE0942792279827391719F094E8C4
:1026E00090939C0460919E0470919F04683F714197
:1026F00028F490919C04926090939C0440937404FD
:1027000010927504A0E12A9F90011124282B309388
:1027100077042093760480E190E090939B0480936B
:102720009A048AE190E02CCA80EE90E00E94A5060F
:10273000882371F180919D04843251F543E060E17A
:1027400080EE90E00E94AD078091CD0368E072E0DA
:1027500090E00E9429068823D9F080917A04909114
:102760007B0498279F3FA1F490E090937704809397
:10277000760480E190E090939B0480939A0489E131
:1027800090E0909373048093720488ED94E009CBF9
:1027900080919D04803709F04FC041E068E084EFEC
:1027A00090E00E94AD0780917A0490917B04A09103
:1027B0007C04B0917D04892B8A2B8B2BE9F541E1B8
:1027C0006FE184EF90E00E94AD0780907A049090D2
:1027D0007B04A0907C04B0907D044FE461E184EF21
:1027E00090E00E94AD0790917B0480917C04892742
:1027F00098278927909377048093760480927A04AF
:1028000090927B04A0927C04B0927D049092750417
:1028100080927404B0927904A09278048BE190E0E5
:10282000909373048093720488E390E090939B04E8
:1028300080939A0480E805CA80919D048F7B843040
:1028400009F040C08091AB0360E073E290E00E9429
:1028500029068823B9F18091AC0360E871E190E02A
:102860000E940906882371F143E060E280E391E071
:102870000E94AD0780917A0490917B0430917C0492
:1028800020917D04909589131DC0922F90959317E8
:10289000C9F04FE150E0509373044093720490E00C
:1028A0009093750480937404C90190937604809387
:1028B000770480E290E090939B0480939A048AE7E7
:1028C00095E06FCA80919D04823108F43BC192E388
:1028D000F70111929A95E9F743E060E08250990B75
:1028E000242F30E0281739079CF429563C4FD90192
:1028F00053962C91223308F025C1F701E20FF11D08
:1029000030813F5F3083621708F4622F4E5FE8CF5B
:102910001EAA1DAA9E012B5C3F4FAE014A5C5F4F71
:10292000C7010E94080B882309F40CC182E3F70158
:1029300011928A95E9F720919D042250330B44E0CF
:1029400060E0842F90E0821793079CF489569C4F97
:10295000DC0153968C91823308F0F4C0F701E80F44
:10296000F11D90819F5F9083681708F4682F4E5F78
:10297000E8CF1CAA1BAA9E012D5C3F4FAE014C5C08
:102980005F4FC7010E94080B882309F4DBC08091C8
:102990009D0486951FEF180FCBA8CC2011F01EEFD9
:1029A000180F212F30E030939B0420939A042901C3
:1029B000B1E04B1A510857FE04C02901EEE14E0E5A
:1029C000511CF5E055944794FA95E1F74FAAADA84C
:1029D000A11003C0CC2009F4B5C02CA882E3289E26
:1029E000100111248EA8889E40011124A89E500138
:1029F0001124C89E60011124E3E06E2E712C812FFA
:102A0000113208F080E29BA9992309F47BC022E0EF
:102A100030E0309373042093720400E020E0A601BC
:102A2000662D0E94490680917A0490917B04A091C2
:102A30007C04B0917D0424E0729EF0011124E657DD
:102A4000FB4F80839183A283B38330E4630E1052E3
:102A500073944FA9471598F620919E0430919F04D6
:102A6000203D3740E8F4F201EE0FFF1FEE0FFF1F8D
:102A7000E657FB4F00811181228133814091A604EA
:102A80005091A7046091A8047091A9040417150738
:102A90002607370729F420919C04216020939C0489
:102AA0008093A6049093A704A093A804B093A904CC
:102AB0002091AB0392E3299F9001112430937F046E
:102AC00020937E048091AC03899FC00111249093D0
:102AD00081048093800490928704809286043092CF
:102AE000890420928804A114B10419F1C114D104FD
:102AF00099F4B0928304A0928204309285042092CB
:102B00008404BDC9A1E0B0E0B0937304A093720443
:102B100000E021E0A50184CFD0928504C092840416
:102B20009092830480928204B0928704A0928604DB
:102B3000A6C99092830480928204D0928504C092A8
:102B400084049DC9E0919D04E63008F498C911E021
:102B500025EC3DE94CE151E8F0E00AE0612F70E03E
:102B6000CB0102968E179F077CF589569C4FDC019E
:102B700053968C9169567C4FDB0153966C91809FE4
:102B80006001112498E0699FD0011124CA16DB0668
:102B9000C8F0609FB0011124A8E08A9FC0011124F1
:102BA000DD24D3946817790710F462E0D62E63E928
:102BB00071E080E091E00E9497189B01AC012D2507
:102BC0001F5FCCCFD12CF3CF20937A0430937B04BA
:102BD00040937C0450937D0480E290E090939B04AA
:102BE00080939A04109273041092720448C900E012
:102BF00080917E03081708F066C0C02ED12CE091AA
:102C00007B03F0917C03EC0DFD1D61E080810E944F
:102C10005E02E0917B03F0917C03EC0DFD1D60E012
:102C200080810E94300281E090E0A0E0B0E0002EC0
:102C300004C0880F991FAA1FBB1F0A94D2F74C012A
:102C40005C01A094B094512C80917D03581620F51E
:102C5000652C712CE0917903F0917A03E60DF71D54
:102C600080810E940702F3013496892B61F4EE0FF4
:102C7000FF1FE95EFC4F808191818829992991830A
:102C800080835394E1CFEE0FFF1FE95EFC4F8081FC
:102C900091818A219B21F3CFE0917B03F0917C030A
:102CA000EC0DFD1D61E080810E94300280917B036C
:102CB00090917C03C80ED91E60E0D6018C910E94D1
:102CC0005E020F5F95CF27E1822E23E0922E83E5EF
:102CD00093E06401F601278D30A1232B31F4148E8B
:102CE0002FEF3FEF368F258F11A236E0C30ED11C98
:102CF0008C159D0579F700E096E0692E80917D03A3
:102D0000081708F052C0712CA02EB12CAA0CBB1CC5
:102D1000C501815E9C4F5C0120917E03721608F014
:102D200042C0D5016D917C91072C02C076956795C4
:102D30000A94E2F7029F90011124270D311DE7E16B
:102D4000F3E080E0458D568D2417350709F4AFC1B7
:102D50008F5F36968A30B1F760FF23C0E7E1F3E07A
:102D600090E080E0448D411117C0E0917703F0912D
:102D70007803E20FF31F4081689EF001699EF00D19
:102D80001124E95EFC4F448F368F258F10A2178ED9
:102D900061E00E946E0105C0019636968A30910569
:102DA00009F77394B9CF0F5FA9CF80E0F40191A127
:102DB0009111892FF6E08F0E911CC814D904B1F738
:102DC0009FB7F89440916A0250916B0260916C0237
:102DD00070916D029FBF409373035093740360938F
:102DE000750370937603882309F4EEC0809138034D
:102DF000882309F4E9C08091360390913703019745
:102E000009F0E2C0809133038111E1C0112359F030
:102E1000612F8EE692E00E949E0361E971E08EE6EA
:102E200092E00E94E3078091640281115DC110333A
:102E30000CF43FC11A330CF044C020916002309171
:102E400061024091620250916302203866E93607C0
:102E500068E946075105E4F4AAE0B0E00E94C91809
:102E6000212F012E000C330B205331094901330F60
:102E7000AA08BB08DC01CB01880D991DAA1DBB1D4A
:102E80008093600290936102A0936202B093630208
:102E900080E00E949B0764E971E086E893E00E946D
:102EA000E30780E00E949B076091600270916102DD
:102EB00080916202909163020E94F2071F3209F42E
:102EC0001DC180916402882309F45AC010330CF4A8
:102ED00057C01A330CF041C020916002309161025A
:102EE0004091620250916302203886E9380788E9F0
:102EF00048075105E4F4AAE0B0E00E94C918212F68
:102F0000012E000C330B205331094901330FAA085D
:102F1000BB08DC01CB01880D991DAA1DBB1D809348
:102F2000600290936102A0936202B093630289E011
:102F30000E949B0764E971E086E893E00E94E30742
:102F400089E00E949B07609160027091610280910C
:102F50006202909163020E94F2078090600290905A
:102F60006102A0906202B09063021D3349F4809127
:102F700064028B3209F44CC064F58A3209F46AC0E9
:102F80000E94A207609160027091610280916202CA
:102F9000909163020E94F20710925C0210925D020F
:102FA00010925E0210925F02109260021092610213
:102FB000109262021092630210926402133609F0BA
:102FC00066C00E94A20763C0109283031FCF182F10
:102FD0001FCF8D3291F18F3299F681149104A104A3
:102FE000B10409F44CC060915C0270915D02809163
:102FF0005E0290915F02A50194010E94F718209350
:103000006002309361024093620250936302B8CF32
:1030100080915C0290915D02A0915E02B0915F028E
:10302000880D991DAA1DBB1D8093600290936102BB
:10303000A0936202B0936302A3CF80915C0290914F
:103040005D02A0915E02B0915F0288199909AA09F8
:10305000BB09EACF20915C0230915D0240915E0293
:1030600050915F02C501B4010E94971860936002FD
:1030700070936102809362029093630281CF0E94F9
:10308000A2076CE971E086E893E00E94E30780E024
:1030900090E0892B11F40C94550D0E94680388234D
:1030A00011F40C94550D0E9400000C94550D6170A4
:1030B00070CE1D32F1F48091600290916102A09176
:1030C0006202B091630280935C0290935D02A093D0
:1030D0005E02B0935F021092600210926102109241
:1030E0006202109263020EC01D3261F01B3219F4AD
:1030F00009C01B3201F31A3209F0E0CE809164025C
:103100008823C9F21093640288E00E949B0741E083
:10311000612F86E893E00E947907D3CEFB01DC01A2
:1031200002C005900D9241505040D8F70895DB0140
:103130008F939F930E94C918BF91AF91A29F800D5A
:10314000911DA39F900DB29F900D11240895A1E2AF
:103150001A2EAA1BBB1BFD010DC0AA1FBB1FEE1F11
:10316000FF1FA217B307E407F50720F0A21BB30B5C
:10317000E40BF50B661F771F881F991F1A9469F7D8
:1031800060957095809590959B01AC01BD01CF0134
:1031900008950E94D418A59F900DB49F900DA49FF0
:1031A000800D911D11240895A29FB001B39FC0010D
:1031B000A39F700D811D1124911DB29F700D811D63
:1031C0001124911D0895AA1BBB1B51E107C0AA1F22
:1031D000BB1FA617B70710F0A61BB70B881F991FB8
:1031E0005A95A9F780959095BC01CD010895052EBB
:1031F00097FB1EF400940E940E1957FD07D00E9401
:10320000A71807FC03D04EF40C940E195095409566
:10321000309521953F4F4F4F5F4F08959095809582
:10322000709561957F4F8F4F9F4F0895EE0FFF1F51
:103230000590F491E02D0994F894FFCF1A00269E92
:103240000002049E0029029E000701006E0000009B
:1032500006070809020304053132332B3435362DB5
:103260003738392A63303D2F632B3D002A3D2F002C
:10327000002D0000300000003132330034353600BC
:10328000373839000000009E03FE022B03EB035C7D
:10329000033A034E0300000000C8049B04DF0571DD
:1032A0000494048104720400000000F102F502F9A4
:1032B0000200000000A707FE02DF05DE0543616C87
:1032C00063756C61746F7220696E6974000D0A0019
:0E32D00020202020202020004552524F520086
:107E0000112484B714BE81FFF0D085E080938100F7
:107E100082E08093C00088E18093C10086E0809377
:107E2000C20080E18093C4008EE0C9D0259A86E02C
:107E300020E33CEF91E0309385002093840096BBD3
:107E4000B09BFECF1D9AA8958150A9F7CC24DD24C4
:107E500088248394B5E0AB2EA1E19A2EF3E0BF2EE7
:107E6000A2D0813461F49FD0082FAFD0023811F036
:107E7000013811F484E001C083E08DD089C08234E0
:107E800011F484E103C0853419F485E0A6D080C0E4
:107E9000853579F488D0E82EFF2485D0082F10E0AE
:107EA000102F00270E291F29000F111F8ED06801E7
:107EB0006FC0863521F484E090D080E0DECF843638
:107EC00009F040C070D06FD0082F6DD080E0C81688
:107ED00080E7D80618F4F601B7BEE895C0E0D1E017
:107EE00062D089930C17E1F7F0E0CF16F0E7DF06D8
:107EF00018F0F601B7BEE89568D007B600FCFDCFD4
:107F0000A601A0E0B1E02C9130E011968C91119780
:107F100090E0982F8827822B932B1296FA010C0160
:107F200087BEE89511244E5F5F4FF1E0A038BF0790
:107F300051F7F601A7BEE89507B600FCFDCF97BE46
:107F4000E89526C08437B1F42ED02DD0F82E2BD052
:107F50003CD0F601EF2C8F010F5F1F4F84911BD097
:107F6000EA94F801C1F70894C11CD11CFA94CF0C13
:107F7000D11C0EC0853739F428D08EE10CD085E9AC
:107F80000AD08FE07ACF813511F488E018D01DD067
:107F900080E101D065CF982F8091C00085FFFCCF94
:107FA0009093C60008958091C00087FFFCCF809118
:107FB000C00084FD01C0A8958091C6000895E0E648
:107FC000F0E098E1908380830895EDDF803219F02E
:107FD00088E0F5DFFFCF84E1DECF1F93182FE3DFCA
:107FE0001150E9F7F2DF1F91089580E0E8DFEE27F6
:047FF000FF270994CA
:027FFE00040479
:00000001FF
